:060000000A128A110C280F
:10000800FE00030EFC000A08FD000A128A114228AD
:100018000A128A110F280A128A11EF200A128A116D
:10002800B2000A128A11F0200A128A11B3000A12C9
:100038008A11EC200A128A11F9000A128A11ED209D
:100048000A128A11FA000A128A11EE200A128A117B
:10005800FB0083132030840032300A128A11E42016
:100068000A128A117030840079300A128A11E42049
:100078000A128A1183010A128A11DB280B1C4528EF
:10008800462899287008031D4A284B286C28831293
:100098000313061850285128572841309900051491
:1000A800F001F00A982886185A285B2861284330FE
:1000B800990085140230F0009828061964286528EC
:1000C8006B284530990005150330F00098289828CA
:1000D80083120313061D712872289828861C752818
:1000E80076289828061C79287A2898287003031DF2
:1000F8007E287F288428423099000510F00198282E
:1001080002307006031D89288A288E2844309900F9
:100118008510822803307006031D932894286B28C5
:1001280046309900051182280B107D088A007C0E44
:100138008300FE0E7E0E09008316031788018901CD
:1001480007308316031386008030870085018312E9
:100158000313850183160313880183120313860191
:100168008801831603138113073095008B15073018
:1001780096000B100F140F088F3940388F000B179B
:100188008B178C1618121815831603178715193034
:100198008316031399009A01831203139817831681
:1001A80003131813981683120313181608000A125B
:1001B8008A11A0200A128A11E0280A128A110C2832
:1001C80064008001840A0406031900340406E52843
:0A01D8002D343B340C34013419348B
:08400000FF3FFF3FFF3FFF3FC0
:04400E00D420FF3F7C
:00000001FF
